:020000040000FA
:08000000803102288731EC2F4A
:1006C20008001630210097000800FE0012001E00EC
:1006D200FE0B672B0034783021009900980122002C
:1006E20096010800F00070080F39203E860087014D
:1006F2000108080021008C110C1022008C150C142A
:100702008C110C10080021008C110C1022000C100E
:100712008C110C148C15080084311D248331833113
:100722006C2383318331622383310800240014193E
:100732009B2B9C2B972B16081F39031DA12BA22B39
:10074200972B9E14080024001419A82BA92BA42B64
:1007520016081F39031DAE2BAF2BA42B1E14080045
:1007620024001419B52BB62BB12B16081F39031D03
:10077200BB2BBC2BB12B1E150800F0002400141952
:10078200C32BC42BBF2B16081F39031DC92BCA2B21
:10079200BF2B700891000800F2007003031DD22BDA
:1007A200D32BDA2B720807390838F1007108FD00E3
:1007B200DF2B72080739F1007108FD000800F7000D
:1007C2000F307705F4000A30F5007508F00077085D
:1007D200F6000430F636890BEB2B760884310824B8
:1007E2008331740708003F3406345B344F34663477
:1007F2006D347D3407347F346F34E4340A340E347C
:10080200013413345434FF34FF34FF34FF34F30023
:10081200F201731C0D2C0E2C122C7008F1007108C1
:10082200F2070310F00D0310F30C7308031D1A2CCA
:100832001B2C0A2C7208080022008C018D01FF304B
:1008420021008C00FF308D00FE3023008D00163019
:100852008C0024008D018C012100951722009D013E
:100862009E010800FB002830240095007B08F90057
:10087200FA01F935FA0DF935FA0D7908F0007A081E
:10088200F100890D893B8909F200F3000030F7007D
:10089200F430F6002430F5000030F40087315C2794
:1008A20084317008FF3E2400920094010800F90090
:1008B2000A30F0000030F10079082000B400B501E0
:1008C2003408F2003508F30085316B258431700855
:1008D2002000B6007108B7000A30F0000030F100C5
:1008E2007908B800B9013808F2003908F3008631F6
:1008F2001926843170082000BA000330BA35FF3E51
:10090200031D7F2C3A3536070800F1002400141924
:100912008B2C8C2C872C16081F39031D912C922CA2
:10092200872C9E151419962C972C932C16081F3978
:10093200031D9C2C9D2C932C1108F0007008F200D2
:100942001419A42CA52CA12C16081F39031DAA2C9E
:10095200AB2CA12C71080319AF2CB22C24009E16CB
:10096200B42C24009E121E1672080800F80083316F
:100972007B238431403085312C258431833184239B
:10098200843183317B23843176080339C03E85313B
:100992002C258431F901DB2C79087807F7007708D8
:1009A20086008701010885312C2584310130F7004A
:1009B2007708F90775087902031CE02CE12CCD2C8D
:1009C20083318423843183317B2384317D080F3941
:1009D200803E85312C258431833184238431080083
:1009E20083318D238431243024008D00A030843162
:1009F200332484312A308600003087003D30840061
:100A02000030850006302000BB0016001A00BB0B28
:100A1200062D3D30863178268431F001F00A0F3000
:100A22008331CD2384313D308531BE2584313D3043
:100A32008631D826843115302000BC004B30BB00F3
:100A4200BE30890B222DBB0B222DBC0B222D0000A8
:100A5200142D80310228F1007108F0007008F300B3
:100A620021000C10F40122000C10731C392D3A2DB8
:100A72003C2D8C153D2D8C110C147336F000700832
:100A8200F3000130F0007008F40708307402031C10
:100A92004B2D4C2D342D0C108C150C1421008C1563
:100AA200833161238531003020008C190130F2003E
:100AB2007208031D5D2D5E2D622D21008C11220016
:100AC2008C1183316123853121008C1183316123A3
:100AD20085310800F601F31F6F2D702D772DF20975
:100AE200F309F20A0319F30AF601F60AF11F7A2D45
:100AF2007B2D802DF009F109F00A0319F10A700823
:100B020071040319852D862DAF2DF501F50A922D5D
:100B12000130F035F10D890B8A2D0130F400740893
:100B2200F507F11F952D962D892D71087302031D6E
:100B32009C2D70087202031C9F2DA02DA42D7008FD
:100B4200F2027108F33B0130F136F00C890BA52D4E
:100B52000130F502031DAE2DAF2D962D7608031937
:100B6200B32DB42DB92DF209F309F20A0319F30AD0
:100B72007308F1007208F0000800F4008331A42326
:100B8200853168308331BE23853100308331BE2305
:100B92008531833197238531D1308331BE2385312D
:100BA2000130843186248531F3007408053E8600C5
:100BB2008701730881000130843186248531F30076
:100BC2007408043E86008701730881000130843175
:100BD20086248531F3007408033E8600870173087A
:100BE20081000130843186248531013084318624AC
:100BF2008531F3007408023E860087017308810084
:100C02000130843186248531F300740A860087011D
:100C1200730881000030843186248531F300740822
:100C220086008701730881008331B1238531080072
:100C3200F601F11F1D2E1E2E252EF009F109F00AD4
:100C42000319F10AF601F60AF31F282E292E322E75
:100C5200F209F309F20A0319F30A0130F4007408E5
:100C6200F606F701F801700871040319392E3A2EBD
:100C7200692EF501F50A462E0130F035F10D890B8A
:100C82003E2E0130F4007408F507F11F492E4A2E5A
:100C92003D2E0130F735F80D890B4B2E710873028A
:100CA200031D552E70087202031C582E592E5E2EFB
:100CB2007008F2027108F33B77140130F136F00C40
:100CC200890B5F2E0130F502031D682E692E4A2E14
:100CD200760803196D2E6E2E732EF709F809F70A9E
:100CE2000319F80A7808F1007708F0000800FC0000
:100CF2008331A423863168308331BE2386310030AC
:100D02008331BE2386317C08053E860087010108B7
:100D12008431582486318331BE2386317C08043ED7
:100D22008600870101088431582486318331BE232D
:100D320086317C08033E86008701010884315824ED
:100D420086318331BE23863101308331BE23863121
:100D52007C08023E860087010108843158248631CE
:100D62008331BE2386317C0A8600870101088431E3
:100D7200582486318331BE2386317C088600870160
:100D820001088431582486318331BE238631833170
:100D9200B12386310530FB000F30FA00F130890BA8
:100DA200D02EFA0BD02EFB0BD02E00000800200014
:100DB200BA003308B7003208B6003108B50030086F
:100DC200B4003A08043E8600870101088331E0231B
:100DD2008631FA007A082000B8003A08053E8600FB
:100DE200870101088331E0238631FA007A08200066
:100DF200B9000A30F0000030F1003808FA00FB01B7
:100E02007A08F2007B08F3008631192686317008D1
:100E1200833173238631FC007C082000B4000A3041
:100E2200F0000030F1003808FA00FB017A08F20005
:100E32007B08F30085316B2586317008833173237B
:100E42008631FC007C082000B5000A30F00000303A
:100E5200F1003908FA00FB017A08F2007B08F3007E
:100E62008631192686317008833173238631FC005E
:100E72007C082000B6000A30F0000030F10039088A
:100E8200FA00FB017A08F2007B08F30085316B253A
:100E920086317008833173238631FC007C08200080
:100EA200B7000430FA007A08F500F60134308431D4
:100EB200B724863108002000B501F31F612F622F8D
:100EC2006F2FF009F109F209F309F00A0319F10A87
:100ED2000319F20A0319F30AB501B50AF71F722FB3
:100EE200732F822FF409F509F609F709F40A031999
:100EF200F50A0319F60A0319F70A0130F80078080F
:100F0200B5060030B9000030B8000030B70000303C
:100F1200B60073087204710470040319912F922FA2
:100F2200D32FB401B40AA02F0130F035F10DF20D28
:100F3200F30D890B962F0130F8007808B407F31FE0
:100F4200A32FA42F952F0130B635B70DB80DB90DCB
:100F5200890BA52F73087702031DB92F7208760239
:100F6200031DB92F71087502031DB92F7008740291
:100F7200031CBC2FBD2FC62F7008F4027108F53B6D
:100F82007208F63B7308F73B36140130F336F20C65
:100F9200F10CF00C890BC72F0130B402031DD22FC4
:100FA200D32FA42F35080319D72FD82FE32FB60933
:100FB200B709B809B909B60A0319B70A0319B80A71
:100FC2000319B90A3908F3003808F2003708F100AA
:100FD2003608F0000800F4308400833085002030A9
:100FE2008600003087001430833166238731FD018B
:0E0FF200C301C401C501C60120008431F12CE9
:020000040001F9
:04000E00E43FFF1EAE
:00000001FF
