:020000040000FA
:08000000803102288731EE2F48
:100430001630210097000800FE0012001E00FE0B7F
:100440001D2A003470302100990098012200960185
:10045000080024001E151E192E2A2F2A2B2A0800F8
:10046000F00070080F39203E86008701010808005F
:1004700021000C118C1022000C158C140C118C1006
:10048000080021000C118C1022008C100C118C140F
:100490000C15080021008C110C1022008C150C1476
:1004A0008C110C10080021008C110C1022000C1073
:1004B0008C110C148C1508008231F72282318231A4
:1004C00022228231823118228231080082317A223E
:1004D000823124009E149E186E2A6F2A6B2A08000F
:1004E00082317A22823124001E141E18782A792A39
:1004F000752A080024001E081F39031D802A812A3E
:100500007A2A1C19842A852A7A2A0800F0007008A1
:10051000240099001C188D2A8E2A8A2A1E1B912AD3
:10052000922A8E2A82317A22823108003F340634A0
:100530005B344F3466346D347D3407347F346F342C
:100540000F340F340F340F340F340F340F340F3493
:10055000F2007003031DAD2AAE2AB52A72080739CE
:100560000838F1007108FD00BA2A72080739F10055
:100570007108FD000800F2007003031DC02AC12AA3
:10058000C82A720807390838F1007108FD00CD2A21
:1005900072080739F1007108FD000800F7000F30FC
:1005A0007705F4000A30F5007508F0007708F600CA
:1005B0000430F636890BD92A76088231E22282315C
:1005C00074070800F300F201731CE72AE82AEC2AFA
:1005D0007008F1007108F2070310F00D0310F30C1E
:1005E0007308031DF42AF52AE42A72080800220081
:1005F0008C018D01FF3021008C00FF308D00DA303E
:1006000023008D0010308C00243024008D008C01DC
:100610002100951722009D019E010800F100710C38
:100620002400031C9E1203189E169E151C1C192BD9
:100630001A2B162B1E161908F0007008F2001D1355
:1006400082317A22833172080800F401F501701CAE
:100650002A2B2B2B2F2B7208F4077308F53D013042
:10066000F235F30D890B302B0130F136F00C890B8C
:10067000352B70087104031D3E2B3F2B272B75086B
:10068000F1007408F0000800F90082317022833113
:10069000D0308231862283317908823186228331BB
:1006A000823166228331D13082318622833101301A
:1006B00083310E2383318231CE228331F8007808D2
:1006C000FA008231292283317A080800F9000A30C1
:1006D000F0000030F10079082000B200B3013208C8
:1006E000F2003308F3008531622583317008200061
:1006F000B4007108B5000A30F0000030F10079084C
:10070000B600B7013608F2003708F3008531B52589
:10071000833170082000B8000330B835FF3E031D58
:100720008D2B383534070800700871040319992B94
:100730009A2BC32BF501F50AA62B0130F035F10DEC
:10074000890B9E2B0130F4007408F507F11FA92BCB
:10075000AA2B9D2B71087302031DB02B7008720227
:10076000031CB32BB42BB82B7008F2027108F33BB7
:100770000130F136F00C890BB92B0130F502031D65
:10078000C22BC32BAA2B7308F1007208F0000800DB
:10079000F1007108F0007008F30021008C10F401E2
:1007A00022008C10731CD52BD62BD82B0C15D92BD3
:1007B0000C118C147336F0007008F3000130F00057
:1007C0007008F40708307402031CE72BE82BD02BC9
:1007D0008C100C158C1421000C15003020000C1905
:1007E0000130F2007208031DF62BF72BFB2B2100C2
:1007F0000C1122000C1121000C110800F1007108ED
:10080000F0007008F30021000C10F40122000C101D
:10081000731C0B2C0C2C0E2C8C150F2C8C110C1407
:100820007336F0007008F3000130F0007008F40730
:1008300008307402031C1D2C1E2C062C0C108C1569
:100840000C1421008C15003020008C190130F200AE
:100850007208031D2C2C2D2C312C21008C11220010
:100860008C1121008C11080079082000B200B3011E
:100870003208B6003308B7007A08B200B301320874
:10088000B8003308B9003708F1003608F0005430DA
:10089000F2000630F30083312523843170082000F4
:1008A000B2007108B3003908F1003808F0001B30BD
:1008B000F2000030F30083312523843170082000DA
:1008C0003207B4007108333DB5003408503EC20011
:1008D0009230353DC3000800F8008231382284315F
:1008E00040308331C82384318231412284318231C6
:1008F0003822843176080339C03E8331C8238431DD
:10090000F901902C79087807F700770886008701AD
:1009100001088331C82384310130F7007708F907D3
:1009200075087902031C952C962C822C8231412269
:1009300084318231382284317D080F39803E833101
:10094000C82384318231412284310800F800823189
:100950004A22843140308331FE2384318231532254
:10096000843182314A22843176080339C03E833192
:10097000FE238431F901CA2C79087807F70077083B
:100980008600870101088331FE2384310130F7009E
:100990007708F90775087902031CCF2CD02CBC2CE2
:1009A00082315322843182314A2284317D080F39C9
:1009B000803E8331FE23843182315322843108000A
:1009C000F601F701700871040319E72CE82C172DC4
:1009D000F501F50AF42C0130F035F10D890BEC2C02
:1009E0000130F4007408F507F11FF72CF82CEB2CFC
:1009F0000130F635F70D890BF92C71087302031DD0
:100A0000032D70087202031C062D072D0C2D700893
:100A1000F2027108F33B76140130F136F00C890BC9
:100A20000D2D0130F502031D162D172DF82C77081A
:100A3000F1007608F0000800FC0006308331442302
:100A40008531FB007C08860087017B08810005302A
:100A5000833144238531FB007C0A860087017B08B3
:100A600081000430833144238531FB007C08023E41
:100A7000860087017B088100033083314423853160
:100A80000230833144238531FB007C08033E86001D
:100A900087017B0881000130833144238531FB00CD
:100AA0007C08043E860087017B088100003083318A
:100AB00044238531FB007C08053E860087017B08C6
:100AC00081000800F601F31F662D672D6E2DF209D7
:100AD000F309F20A0319F30AF601F60AF11F712D60
:100AE000722D772DF009F109F00A0319F10A700847
:100AF000710403197C2D7D2DA62DF501F50A892D94
:100B00000130F035F10D890B812D0130F4007408AE
:100B1000F507F11F8C2D8D2D802D71087302031D9B
:100B2000932D70087202031C962D972D9B2D700833
:100B3000F2027108F33B0130F136F00C890B9C2D69
:100B40000130F502031DA52DA62D8D2D7608031964
:100B5000AA2DAB2DB02DF209F309F20A0319F30AFD
:100B60007308F1007208F0000800F601F11FB92DBA
:100B7000BA2DC12DF009F109F00A0319F10AF601A5
:100B8000F60AF31FC42DC52DCE2DF209F309F20A82
:100B90000319F30A0130F4007408F606F701F801AE
:100BA000700871040319D52DD62D052EF501F50A0F
:100BB000E22D0130F035F10D890BDA2D0130F40012
:100BC0007408F507F11FE52DE62DD92D0130F73515
:100BD000F80D890BE72D71087302031DF12D7008C4
:100BE0007202031CF42DF52DFA2D7008F202710823
:100BF000F33B77140130F136F00C890BFB2D0130FB
:100C0000F502031D042E052EE62D76080319092E84
:100C10000A2E0F2EF709F809F70A0319F80A7808BF
:100C2000F1007708F0000800FC0082317022863164
:100C3000D030823186228631003082318622863160
:100C40007C08053E860087010108833166238631D2
:100C50008231862286317C08043E860087010108A5
:100C60008331662386318231862286317C08033EB9
:100C7000860087010108833166238631823186220E
:100C8000863101308231862286317C08023E860020
:100C900087010108833166238631823186228631BD
:100CA0007C0A860087010108833166238631823100
:100CB000862286317C0886008701010883316623FD
:100CC0008631823186228631823129228631033073
:100CD000FB000830FA007730890B6C2EFA0B6C2E73
:100CE000FB0B6C2E000008002000B20032088600CA
:100CF0008701433FB300320886008701443FB400B8
:100D00000A30F0000030F1003308FA00FB017A08E5
:100D1000F2007B08F3008531B525863170088231F9
:100D200030228631FC007C082000AE000A30F00042
:100D30000030F1003308FA00FB017A08F2007B086A
:100D4000F300853162258631700882313022863188
:100D5000FC007C082000AF000A30F0000030F100F9
:100D60003408FA00FB017A08F2007B08F3008531B1
:100D7000B52586317008823130228631FC007C082E
:100D80002000B0000A30F0000030F1003408FA0012
:100D9000FB017A08F2007B08F30085316225863179
:100DA0007008823130228631FC007C082000B100BE
:100DB0000430FA007A08F500F6012E308431A624BA
:100DC0008631080020004308FC004208FB00E830A0
:100DD000F0000330F1007C08F3007B08F20084315E
:100DE000E02486317008823130228631FA007A0898
:100DF0002000AA00E830F0000330F1007C08F30086
:100E00007B08F2008331942386317108FC0070085E
:100E1000FB006430F0000030F1007C08F3007B0838
:100E2000F2008431E024863170088231302286312C
:100E3000FA007A082000AB006430F0000030F100C6
:100E40007C08F3007B08F20083319423863171081B
:100E5000FC007008FB000A30F0000030F1007C0854
:100E6000F3007B08F2008431E0248631700882317F
:100E700030228631FA007A082000AC000A30F000F7
:100E80000030F1007C08F3007B08F20083319423EA
:100E900086317108FC007008FB007B08823130222B
:100EA0008631FA007A082000AD000430FA007A0892
:100EB000F500F6012A3084316C2486310800823135
:100EC0005C22873121000D158D16243024008D0001
:100ED00013309A0028309D009E019C0114302000A0
:100EE000BA003A08BC000B30BA003A08BD00BE0197
:100EF000BE0A1630BA003A08BF001E30BA003A08DF
:100F0000C000C1013C30863114268731F001F00A5F
:100F10000F308231BB228731F001F00A0F3082316D
:100F2000A82287313C3085311C2587313C30860032
:100F3000003087007630840000308500403F803FDD
:100F4000413F813F423F823F433F833F443F843F95
:100F5000453F853F8431342487318631E22687310D
:100F60003C3085311C2587313C30863174268731F1
:100F700020004108031DBD2FBE2FDB2F12303F0282
:100F8000031CC32FC42FDB2F3C30860000308700AA
:100F90007630840000308500403F803F413F813FF4
:100FA000423F823F433F833F443F843F453F853F2D
:100FB0008431342487318631E226873102302000A3
:100FC000BB000430BA00BA30890BE42FBA0BE42F0F
:100FD000BB0BE42F0000B02F803102289630840034
:100FE0008230850020308600003087001230823148
:100FF0001C228731FD01C201C301200087315F2F10
:0C100000543406341B3400341134003426
:020000040001F9
:04000E00E43FFF1EAE
:00000001FF
