:020000040000FA
:08000000803102288731EB2F4B
:1009500008001630210097000800FE0012001E005B
:10096000FE0BAE2C0034703021009900980122005B
:100970009601080024001E151E19BF2CC02CBC2C8B
:100980000800F00070080F392F3E8600870101082B
:10099000080021008C110C1022008C150C148C11F5
:1009A0000C10080021008C110C1022000C108C116E
:1009B0000C148C1508008531552584318431B324FD
:1009C00084318431A924843108008431EF248431B6
:1009D00024001E141E18ED2CEE2CEA2C0800240016
:1009E0001E081F39031DF52CF62CEF2C1C19F92CB1
:1009F000FA2CEF2C08003F3406345B344F34663455
:100A00006D347D3407347F346F34FF34FF34FF346A
:100A1000FF34F0007008240099001C18102D112DCF
:100A20000D2D1E1B142D152D112D8431EF24853114
:100A30000800F2007003031D1E2D1F2D262D7208C5
:100A400007390838F1007108FD002B2D72080739AD
:100A5000F1007108FD000800F7000F307705F40081
:100A60000A30F5007508F0007708F6000430F63615
:100A7000890B372D760885314025853174070800AC
:100A8000F300F201731C452D462D4A2D7008F1002C
:100A90007108F2070310F00D0310F30C7308031D27
:100AA000522D532D422D7208080022008C018D0119
:100AB000FF3021008C00FF308D00DA3023008D00E4
:100AC00016308C00243024008D008C0121009517F5
:100AD00022009D019E010800F100710C2400031CFE
:100AE0009E1203189E169E151C1C772D782D742DB2
:100AF0001E161908F0007008F2001D138431EF244F
:100B0000853172080800F8008431C92485314030ED
:100B10008531BD2585318431D22485318431C92484
:100B2000853176080339C03E8531BD258531F9010F
:100B3000A72D79087807F700770886008701010854
:100B40008531BD2585310130F7007708F907750833
:100B50007902031CAC2DAD2D992D8431D224853121
:100B60008431C92485317D080F39803E8531BD250A
:100B700085318431D22485310800F1007108F000FC
:100B80007008F30021000C10F40122000C10731CFB
:100B9000CA2DCB2DCD2D8C15CE2D8C110C1473366A
:100BA000F0007008F3000130F0007008F40708301E
:100BB0007402031CDC2DDD2DC52D0C108C150C14BE
:100BC00021008C158431A8248531003020008C1937
:100BD0000130F2007208031DEE2DEF2DF32D2100E0
:100BE0008C1122008C118431A824853121008C11B4
:100BF0008431A82485310800F601F31F002E012E50
:100C0000082EF209F309F20A0319F30AF601F60AAB
:100C1000F11F0B2E0C2E112EF009F109F00A031909
:100C2000F10A700871040319162E172E402EF501D3
:100C3000F50A232E0130F035F10D890B1B2E013002
:100C4000F4007408F507F11F262E272E1A2E7108BE
:100C50007302031D2D2E70087202031C302E312EDC
:100C6000352E7008F2027108F33B0130F136F00CBA
:100C7000890B362E0130F502031D3F2E402E272E04
:100C800076080319442E452E4A2EF209F309F20A7A
:100C90000319F30A7308F1007208F0000800F60166
:100CA000F11F532E542E5B2EF009F109F00A03199F
:100CB000F10AF601F60AF31F5E2E5F2E682EF20986
:100CC000F309F20A0319F30A0130F4007408F60676
:100CD000F701F8017008710403196F2E702E9F2E12
:100CE000F501F50A7C2E0130F035F10D890B742EDB
:100CF0000130F4007408F507F11F7F2E802E732E4B
:100D00000130F735F80D890B812E71087302031D30
:100D10008B2E70087202031C8E2E8F2E942E70085C
:100D2000F2027108F33B77140130F136F00C890BB5
:100D3000952E0130F502031D9E2E9F2E802E7608E3
:100D40000319A32EA42EA92EF709F809F70A0319EF
:100D5000F80A7808F1007708F0000800FA008431FA
:100D6000E5248631D0308531092586310030853142
:100D7000092586318431BA2486318431E5248631CF
:100D8000D130853109258631013085316C25863198
:100D900085312C258631F90078088600870179088D
:100DA0008100013085316C25863185312C258631D5
:100DB000F9007A08860087017908810001308531C1
:100DC0006C25863185312C258631013085316C25A5
:100DD0008631013085316C25863185312C2586316F
:100DE000013085316C25863185312C2586310130E5
:100DF00085316C25863185312C2586318431BA24A4
:100E000086318431E5248631D1308531092586311A
:100E1000013085316C2586318431BA248631080051
:100E20008431DB24873121000D158D161330240009
:100E30009A0028309D009E019C0114302000A700DC
:100E40002708A9002630A7002708AD000E30A7000C
:100E50002708AE001430A7002708C2000B30A700F7
:100E60002708C300F001F00A0F30853119258731BA
:100E7000293087317A2787312000C101552F293049
:100E800087317A27873101302000A7002708C10762
:100E90000B302000A8002630A7005D30890B4E2FB4
:100EA000A70B4E2FA80B4E2F003205302000410219
:100EB000031C5B2F5C2F3F2FC10142302000A70095
:100EC0002708F80043308631AE2687312930873134
:100ED0007A2787310B302000A8002630A7005D302C
:100EE000890B702FA70B702FA80B702F00325D2F6E
:100EF000803102282000A6003C08A5003B08A40081
:100F00003A08A3003908A20042084107FA007A080B
:100F1000C2000A30F0000030F1004308FA00FB0183
:100F20007A08F2007B08F30086314F26873170087B
:100F30008431C1248731FC007C082000A2000A30E3
:100F4000F0000030F1004308FA00FB017A08F200DB
:100F50007B08F3008531FC25873170088431C1247A
:100F60008731FC007C082000A3000A30F00000302C
:100F7000F1004208FA00FB017A08F2007B08F30056
:100F800086314F26873170088431C1248731FC00B7
:100F90007C082000A4000A30F0000030F100420874
:100FA000FA00FB017A08F2007B08F3008531FC258A
:100FB000873170088431C1248731FC007C0820000F
:100FC000A5000430FA007A08F500F60122308531D8
:100FD000832587310800FB308400843085002F3062
:100FE0008600003087000E308431AD248731FD014A
:100FF000BD01BE01BF01C001C10120008731102F1A
:020000040001F9
:04000E00E43FFF1EAE
:00000001FF
