:020000040000FA
:08000000803102288731FD2F39
:100AEE0016302100970008007030210099009801FF
:100AFE0022009601080024001E151E19872D882D30
:100B0E00842D08008531EC25853185317B25853195
:100B1E0085317725853108008531A725853124005B
:100B2E009E149E189B2D9C2D982D08008531A7256F
:100B3E00853124001E141E18A52DA62DA22D0800E9
:100B4E0024001E081F39031DAD2DAE2DA72D1C1917
:100B5E00B12DB22DA72D0800F000700824009900C9
:100B6E001C18BA2DBB2DB72D1E1BBE2DBF2DBB2D98
:100B7E008531A72585310800F7000F307705F40081
:100B8E000A30F5007508F0007708F6000430F636E6
:100B9E00890BCE2D76088531D7258531740708004F
:100BAE00F300F201731CDC2DDD2DE12D7008F10038
:100BBE007108F2070310F00D0310F30C7308031DF8
:100BCE00E92DEA2DD92D7208080022008C018D0125
:100BDE00FF3021008C00FF308D00DA3023008D00B5
:100BEE0010308C00243024008D008C0121009513D0
:100BFE0022009D019E010800F100710C2400031CCF
:100C0E009E1203189E169E151C1C0E2E0F2E0B2EBA
:100C1E001E161908F0007008F2001D138531A72565
:100C2E00863172080800F90085319D258631D03055
:100C3E008531B325863179088531B32586318531E5
:100C4E0093258631D1308531B325863101308631F9
:100C5E00032686318531C3258631F8007808FA00DF
:100C6E008531822586317A080800F9000A30F000B5
:100C7E000030F10079082000A000A1012008F20048
:100C8E002108F3008631EB26863170082000A20081
:100C9E007108A3000A30F0000030F1007908A400BA
:100CAE00A5012408F2002508F30087313E2786317E
:100CBE0070082000A6000330A635FF3E031D632EEC
:100CCE00263522070800853189258631CA30230052
:100CDE008D00243024008D0013309A0028309D00A2
:100CEE009E019C011430FD007D082000A7000B30F2
:100CFE00FD007D08A8000F30FD007D08A90008301A
:100D0E00FD007D08AA002830FD007D08AB00AC0177
:100D1E00273087319D27863127308631A5268631AB
:100D2E0027308631A52686313430FD00F230890B0E
:100D3E009E2EFD0B9E2E972E80310228FC00063033
:100D4E0086311A268631FB007C08860087017B08D7
:100D5E008100053086311A268631FB007C0A86001A
:100D6E0087017B088100043086311A268631FB000C
:100D7E007C08023E860087017B08810003308631A5
:100D8E001A268631023086311A268631FB007C08FF
:100D9E00033E860087017B088100013086311A26CA
:100DAE008631FB007C08043E860087017B088100AB
:100DBE00003086311A268631FB007C08053E8600FF
:100DCE0087017B0881000800F601F31FEF2EF02E3D
:100DDE00F72EF209F309F20A0319F30AF601F60ADD
:100DEE00F11FFA2EFB2E002FF009F109F00A03195C
:100DFE00F10A700871040319052F062F2F2FF50124
:100E0E00F50A122F0130F035F10D890B0A2F013042
:100E1E00F4007408F507F11F152F162F092F71080E
:100E2E007302031D1C2F70087202031C1F2F202F2C
:100E3E00242F7008F2027108F33B0130F136F00CEA
:100E4E00890B252F0130F502031D2E2F2F2F162F64
:100E5E0076080319332F342F392FF209F309F20ACA
:100E6E000319F30A7308F1007208F0000800F60186
:100E7E00F11F422F432F4A2FF009F109F00A0319EF
:100E8E00F10AF601F60AF31F4D2F4E2F572FF209D6
:100E9E00F309F20A0319F30A0130F4007408F60696
:100EAE00F701F8017008710403195E2F5F2F8E2F62
:100EBE00F501F50A6B2F0130F035F10D890B632F1B
:100ECE000130F4007408F507F11F6E2F6F2F622F9B
:100EDE000130F735F80D890B702F71087302031D61
:100EEE007A2F70087202031C7D2F7E2F832F7008BD
:100EFE00F2027108F33B77140130F136F00C890BD6
:100F0E00842F0130F502031D8D2F8E2F6F2F760843
:100F1E000319922F932F982FF709F809F70A03193F
:100F2E00F80A7808F1007708F0000800FC00853117
:100F3E009D258731D0308531B325873100308531FD
:100F4E00B32587317C08053E86008701010886316E
:100F5E003C2687318531B32587317C08043E8600D7
:100F6E008701010886313C2687318531B3258731CB
:100F7E007C08033E86008701010886313C268731B6
:100F8E008531B325873101308531B32587317C0812
:100F9E00023E86008701010886313C268731853165
:100FAE00B32587317C0A86008701010886313C26ED
:100FBE0087318531B32587317C088600870101088A
:100FCE0086313C2687318531B3258731853182259F
:100FDE0087310330FB000830FA007730890BF52F8C
:100FEE00FA0BF52FFB0BF52F0000080020008631C1
:020FFE006A2E59
:020000040001F9
:04000E00E43FFF1EAE
:00000001FF
