:020000040000FA
:08000000803102288731EC2F4A
:1008500008001630210097000800FE0012001E005C
:10086000FE0B2E2C003470302100990098012200DC
:100870009601080024001E151E193F2C402C3C2C0C
:100880000800F00070080F39333E86008701010828
:10089000080021008C110C1022008C150C148C11F6
:1008A0000C10080021008C110C1022000C108C116F
:1008B0000C148C1508008431DF24843184313324F6
:1008C00084318431292484310800843179248431AD
:1008D00024009E149E186D2C6E2C6A2C0800843106
:1008E0007924843124001E141E18772C782C742C43
:1008F000080024001E081F39031D7F2C802C792C32
:100900001C19832C842C792C08003F3406345B346A
:100910004F3466346D347D3407347F346F34FF34A4
:10092000FF34FF34FF34F0007008240099001C18D5
:100930009A2C9B2C972C1E1B9E2C9F2C9B2C84311D
:10094000792484310800F2007003031DA82CA92C1F
:10095000B02C720807390838F1007108FD00B52C79
:1009600072080739F1007108FD000800F7000F3028
:100970007705F4000A30F5007508F0007708F600F6
:100980000430F636890BC12C76088431CA248431B0
:1009900074070800F300F201731CCF2CD02CD42C68
:1009A0007008F1007108F2070310F00D0310F30C4A
:1009B0007308031DDC2CDD2CCC2C720808002200EF
:1009C0008C018D01FF3021008C00FF308D00DA306A
:1009D00023008D0016308C00243024008D008C0103
:1009E0002100951722009D019E010800F100710C65
:1009F0002400031C9E1203189E169E151C1C012D1C
:100A0000022DFE2C1E161908F0007008F2001D13AE
:100A100084317924843172080800F90084316F240C
:100A20008531D03084319324853179088431932401
:100A30008531843165248531D130843193248531E9
:100A400001308431F62485318431B6248531F800B3
:100A50007808FA0084313A2485317A080800F900D0
:100A60000A30F0000030F10079082000A000A10158
:100A70002008F2002108F3008631642685317008D1
:100A80002000A2007108A3000A30F0000030F1003D
:100A90007908A400A5012408F2002508F300863196
:100AA000B726853170082000A6000330A635FF3E2A
:100AB000031D562D263522070800F80084314924ED
:100AC00085314030853197258531843152248531F7
:100AD00084314924853176080339C03E8531972514
:100AE0008531F901812D79087807F70077088600AC
:100AF000870101088531972585310130F700770896
:100B0000F90775087902031C862D872D732D843112
:100B1000522485318431492485317D080F39803E46
:100B20008531972585318431522485310800F100C3
:100B30007108F0007008F30021000C10F40122008D
:100B40000C10731CA42DA52DA72D8C15A82D8C1170
:100B50000C147336F0007008F3000130F0007008D8
:100B6000F40708307402031CB62DB72D9F2D0C100E
:100B70008C150C1421008C1584312824853100300B
:100B800020008C190130F2007208031DC82DC92DF8
:100B9000CD2D21008C1122008C1184312824853127
:100BA00021008C118431282485310800FC00063096
:100BB00085310D258531FB007C08860087017B0887
:100BC0008100053085310D258531FB007C0A8600CA
:100BD00087017B088100043085310D258531FB00BC
:100BE0007C08023E860087017B0881000330853146
:100BF0000D258531023085310D258531FB007C08BE
:100C0000033E860087017B088100013085310D2578
:100C10008531FB007C08043E860087017B0881004B
:100C2000003085310D258531FB007C08053E8600AE
:100C300087017B088100080084315B248631210014
:100C40000D158D16243024008D0013309A002830A5
:100C50009D009E019C0114302000AB002B08AD00CC
:100C60000B30AB002B08AE00AF01AF0A0A30AB006F
:100C70002B08B0002630AB002B08B1001830AB00B9
:100C80002B08B2002D30873116278631F001F00A8B
:100C90000F308431A32486312D308531D62586311D
:100CA0002D3087317627863102302000AC000430A9
:100CB000AB00BA30890B5A2EAB0B5A2EAC0B5A2E06
:100CC00000004C2E80310228F601F31F682E692E99
:100CD000702EF209F309F20A0319F30AF601F60A73
:100CE000F11F732E742E792EF009F109F00A031901
:100CF000F10A7008710403197E2E7F2EA82EF501CB
:100D0000F50A8B2E0130F035F10D890B832E013061
:100D1000F4007408F507F11F8E2E8F2E822E7108B5
:100D20007302031D952E70087202031C982E992ED3
:100D30009D2E7008F2027108F33B0130F136F00C81
:100D4000890B9E2E0130F502031DA72EA82E8F2E93
:100D500076080319AC2EAD2EB22EF209F309F20A71
:100D60000319F30A7308F1007208F0000800F60195
:100D7000F11FBB2EBC2EC32EF009F109F00A031996
:100D8000F10AF601F60AF31FC62EC72ED02EF2097D
:100D9000F309F20A0319F30A0130F4007408F606A5
:100DA000F701F801700871040319D72ED82E072F08
:100DB000F501F50AE42E0130F035F10D890BDC2E3A
:100DC0000130F4007408F507F11FE72EE82EDB2E42
:100DD0000130F735F80D890BE92E71087302031DF8
:100DE000F32E70087202031CF62EF72EFC2E7008EC
:100DF000F2027108F33B77140130F136F00C890BE5
:100E0000FD2E0130F502031D062F072FE82E760870
:100E100003190B2F0C2F112FF709F809F70A0319E3
:100E2000F80A7808F1007708F0000800FC00843127
:100E30006F248731D030843193248731003084315E
:100E4000932487317C08053E86008701010885319F
:100E50002F2587318431932487317C08043E860016
:100E60008701010885312F2587318431932487310B
:100E70007C08033E86008701010885312F258731D4
:100E800084319324873101308431932487317C0865
:100E9000023E86008701010885312F258731843184
:100EA000932487317C0A86008701010885312F252C
:100EB00087318431932487317C08860087010108BB
:100EC00085312F25873184319324873184313A2429
:100ED00087310330FB000830FA007730890B6E2F22
:100EE000FA0B6E2FFB0B6E2F000008002000AA00EB
:100EF0004008A7003F08A6003E08A5003D08A40042
:100F00002A0886008701443FA8002A088600870136
:100F1000453FA9000A30F0000030F1002808FA002F
:100F2000FB017A08F2007B08F3008631B72687318F
:100F30007008843141248731FC007C082000A40023
:100F40000A30F0000030F1002808FA00FB017A08AE
:100F5000F2007B08F3008631642687317008843103
:100F600041248731FC007C082000A5000A30F000F5
:100F70000030F1002908FA00FB017A08F2007B0832
:100F8000F3008631B72687317008843141248731D8
:100F9000FC007C082000A6000A30F0000030F100C0
:100FA0002908FA00FB017A08F2007B08F300863179
:100FB000642687317008843141248731FC007C0825
:100FC0002000A7000430FA007A08F500F60124306A
:100FD00085315D25873108008530840084308500A7
:100FE00033308600003087000E3084312D24873165
:100FF000FD01C101C201C301C401200086311C2EC4
:020000040001F9
:04000E00E43FFF1EAE
:00000001FF
