:020000040000FA
:08000000803102288731EE2F48
:10040A001630210097000800FE0012001E00FE0BA5
:10041A000A2A0034703021009900980122009601BE
:10042A00080024001E151E191B2A1C2A182A080057
:10043A00F00070080F39203E860087010108080085
:10044A0021000C118C1022000C158C140C118C102C
:10045A00080021000C118C1022008C100C118C1435
:10046A000C15080021008C110C1022008C150C149C
:10047A008C110C10080021008C110C1022000C1099
:10048A008C110C148C1508008231E42282318231DD
:10049A000F2282318231052282310800823167229D
:1004AA00823124009E149E185B2A5C2A582A08006E
:1004BA0082316722823124001E141E18652A662A98
:1004CA00622A080024001E081F39031D6D2A6E2A9D
:1004DA00672A1C19712A722A672A0800F000700814
:1004EA00240099001C187A2A7B2A772A1E1B7E2A46
:1004FA007F2A7B2A82316722823108003F34063400
:10050A005B344F3466346D347D3407347F346F3452
:10051A000F340F340F340F340F340F340F340F34B9
:10052A00F2007003031D9A2A9B2AA22A720807392D
:10053A000838F1007108FD00A72A72080739F1008E
:10054A007108FD000800F2007003031DAD2AAE2AEF
:10055A00B52A720807390838F1007108FD00BA2A6D
:10056A0072080739F1007108FD000800F7000F3022
:10057A007705F4000A30F5007508F0007708F600F0
:10058A000430F636890BC62A76088231CF228231A8
:10059A0074070800F300F201731CD42AD52AD92A59
:1005AA007008F1007108F2070310F00D0310F30C44
:1005BA007308031DE12AE22AD12A720808002200E0
:1005CA008C018D01FF3021008C00FF308D00DA3064
:1005DA0023008D0010308C00243024008D008C0103
:1005EA002100951322009D019E010800F100710C63
:1005FA002400031C9E1203189E169E151C1C062B13
:10060A00072B032B1E161908F0007008F2001D13A1
:10061A0082316722823172080800F401F501701CE8
:10062A00172B182B1C2B7208F4077308F53D0130A1
:10063A00F235F30D890B1D2B0130F136F00C890BC5
:10064A00222B70087104031D2B2B2C2B142B7508DD
:10065A00F1007408F0000800F90082315D2283314C
:10066A00D030823173228331790882317322833107
:10067A00823153228331D130823173228331013066
:10068A008231FB2283318231BB228331F800780820
:10069A00FA008231162283317A080800F9000A30FA
:1006AA00F0000030F10079082000B200B3013208EE
:1006BA00F2003308F3008531592583317008200090
:1006CA00B4007108B5000A30F0000030F100790872
:1006DA00B600B7013608F2003708F3008531AC25B9
:1006EA00833170082000B8000330B835FF3E031D7F
:1006FA007A2B383534070800700871040319862BE1
:10070A00872BB02BF501F50A932B0130F035F10D4B
:10071A00890B8B2B0130F4007408F507F11F962B17
:10072A00972B8A2B71087302031D9D2B7008720286
:10073A00031CA02BA12BA52B7008F2027108F33B16
:10074A000130F136F00C890BA62B0130F502031D9E
:10075A00AF2BB02B972B7308F1007208F00008003A
:10076A00F1007108F0007008F30021008C10F40108
:10077A0022008C10731CC22BC32BC52B0C15C62B45
:10078A000C118C147336F0007008F3000130F0007D
:10079A007008F40708307402031CD42BD52BBD2B28
:1007AA008C100C158C1421000C15003020000C192B
:1007BA000130F2007208031DE32BE42BE82B210021
:1007CA000C1122000C1121000C110800F100710813
:1007DA00F0007008F30021000C10F40122000C1044
:1007EA00731CF82BF92BFB2B8C15FC2B8C110C147E
:1007FA007336F0007008F3000130F0007008F40757
:10080A0008307402031C0A2C0B2CF32B0C108C15C9
:10081A000C1421008C15003020008C190130F200D4
:10082A007208031D192C1A2C1E2C21008C1122006F
:10083A008C1121008C110800F800823125228431A4
:10084A0040308331B523843182312E228431823182
:10085A002522843176080339C03E8331B523843199
:10086A00F901452C79087807F7007708860087018F
:10087A0001088331B52384310130F7007708F9077D
:10088A0075087902031C4A2C4B2C372C82312E22F4
:10089A0084318231252284317D080F39803E8331AB
:1008AA00B523843182312E2284310800F800823146
:1008BA003722843140308331EB2384318231402224
:1008CA00843182313722843176080339C03E83313C
:1008DA00EB238431F9017F2C79087807F700770830
:1008EA008600870101088331EB2384310130F70048
:1008FA007708F90775087902031C842C852C712C5A
:10090A008231402284318231372284317D080F3985
:10091A00803E8331EB2384318231402284310800C6
:10092A00F601F7017008710403199C2C9D2CCC2C3C
:10093A00F501F50AA92C0130F035F10D890BA12C2E
:10094A000130F4007408F507F11FAC2CAD2CA02C73
:10095A000130F635F70D890BAE2C71087302031DB1
:10096A00B82C70087202031CBB2CBC2CC12C70085A
:10097A00F2027108F33B76140130F136F00C890B60
:10098A00C22C0130F502031DCB2CCC2CAD2C7708E0
:10099A00F1007608F000080012307902031CD62C08
:1009AA00D72C0F2D79082000B200B3013208B60007
:1009BA003308B7007A08B200B3013208B800330826
:1009CA00B9003708F1003608F0005430F20006305A
:1009DA00F30083311223843170082000B2007108B9
:1009EA00B3003908F1003808F0001B30F20000307B
:1009FA00F300833112238431700820003207B400D7
:100A0A007108333DB5003408503EC3009230353D7D
:100A1A00C400122D2000C301C4010800FC000630E6
:100A2A00833131238531FB007C08860087017B08EE
:100A3A0081000530833131238531FB007C0A860031
:100A4A0087017B0881000430833131238531FB0023
:100A5A007C08023E860087017B08810003308331CF
:100A6A00312385310230833131238531FB007C0803
:100A7A00033E860087017B088100013083313123E0
:100A8A008531FB007C08043E860087017B088100D3
:100A9A000030833131238531FB007C08053E860016
:100AAA0087017B0881000800F601F31F5D2D5E2D8A
:100ABA00652DF209F309F20A0319F30AF601F60A97
:100ACA00F11F682D692D6E2DF009F109F00A03193D
:100ADA00F10A700871040319732D742D9D2DF50107
:100AEA00F50A802D0130F035F10D890B782D013092
:100AFA00F4007408F507F11F832D842D772D7108F2
:100B0A007302031D8A2D70087202031C8D2D8E2D0F
:100B1A00922D7008F2027108F33B0130F136F00CA5
:100B2A00890B932D0130F502031D9C2D9D2D842DDB
:100B3A0076080319A12DA22DA72DF209F309F20AAD
:100B4A000319F30A7308F1007208F0000800F601AD
:100B5A00F11FB02DB12DB82DF009F109F00A0319D2
:100B6A00F10AF601F60AF31FBB2DBC2DC52DF209B9
:100B7A00F309F20A0319F30A0130F4007408F606BD
:100B8A00F701F801700871040319CC2DCD2DFC2D45
:100B9A00F501F50AD92D0130F035F10D890BD12D6A
:100BAA000130F4007408F507F11FDC2DDD2DD02D7E
:100BBA000130F735F80D890BDE2D71087302031D1C
:100BCA00E82D70087202031CEB2DEC2DF12D700834
:100BDA00F2027108F33B77140130F136F00C890BFD
:100BEA00F22D0130F502031DFB2DFC2DDD2D7608BB
:100BFA000319002E012E062EF709F809F70A031920
:100C0A00F80A7808F1007708F0000800FC00823141
:100C1A005D228631D03082317322863100308231B2
:100C2A00732286317C08053E8600870101088331DC
:100C3A00532386318231732286317C08043E860032
:100C4A008701010883315323863182317322863129
:100C5A007C08033E860087010108833153238631CD
:100C6A0082317322863101308231732286317C08C7
:100C7A00023E86008701010883315323863182317F
:100C8A00732286317C0A8600870101088331532347
:100C9A0086318231732286317C08860087010108F9
:100CAA00833153238631823173228631823116226F
:100CBA0086310330FB000830FA007730890B632E47
:100CCA00FA0B632EFB0B632E000008002000B20013
:100CDA00320886008701433FB30032088600870145
:100CEA00443FB4000A30F0000030F1003308FA0043
:100CFA00FB017A08F2007B08F3008531AC258631C6
:100D0A00700882311D228631FC007C082000AE006A
:100D1A000A30F0000030F1003308FA00FB017A08CB
:100D2A00F2007B08F300853159258631700882313B
:100D3A001D228631FC007C082000AF000A30F0003A
:100D4A000030F1003408FA00FB017A08F2007B084F
:100D5A00F3008531AC258631700882311D22863137
:100D6A00FC007C082000B0000A30F0000030F100DE
:100D7A003408FA00FB017A08F2007B08F300853197
:100D8A0059258631700882311D228631FC007C0883
:100D9A002000B1000430FA007A08F500F6012E307E
:100DAA0084315B248631080020004408FC00430893
:100DBA00FB00E830F0000330F1007C08F3007B0808
:100DCA00F200843195248631700882311D228631E1
:100DDA00FA007A082000AA00E830F0000330F10097
:100DEA007C08F3007B08F200833181238631710885
:100DFA00FC007008FB006430F0000030F1007C0851
:100E0A00F3007B08F2008431952486317008823120
:100E1A001D228631FA007A082000AB006430F00007
:100E2A000030F1007C08F3007B08F2008331812353
:100E3A0086317108FC007008FB000A30F0000030AF
:100E4A00F1007C08F3007B08F20084319524863196
:100E5A00700882311D228631FA007A082000AC001F
:100E6A000A30F0000030F1007C08F3007B08F20041
:100E7A008331812386317108FC007008FB007B08EE
:100E8A0082311D228631FA007A082000AD00043032
:100E9A00FA007A08F500F6012A30843121248631D5
:100EAA000800823149228731CA3023008D0021008F
:100EBA000D158D160D16343024008D0013309A004E
:100ECA0028309D009E019C0114302000BA003A0887
:100EDA00BD000B30BA003A08BE000F30BA003A081B
:100EEA00BF000830BA003A08C0002830BA003A08F1
:100EFA00C100C2013D3086310B268731F001F00A6C
:100F0A000F308231A8228731F001F00A0F30823186
:100F1A00952287313D308531132587313D30860052
:100F2A00003087007630840000308500403F803FE3
:100F3A00413F813F423F823F433F833F443F843F9B
:100F4A00453F853F8431D12487318631D92687317F
:100F5A003D3085311325873134302000BA00F13015
:100F6A00890BB52FBA0BB52F00323D3086316B266F
:100F7A00873120004208031DC32FC42FDB2F3D30C9
:100F8A008600003087007630840000308500403FBC
:100F9A00803F413F813F423F823F433F833F443F3F
:100FAA00843F453F853F8431D12487318631D92614
:100FBA00873102302000BB000430BA00BA30890BF6
:100FCA00E42FBA0BE42FBB0BE42F0000AD2F8031C6
:100FDA000228833084008230850020308600003069
:100FEA0087001230823109228731FD01C301C40111
:100FFA0020008731562F543406341B340034113400
:02100A000034B0
:020000040001F9
:04000E00E43FFF1EAE
:00000001FF
