:020000040000FA
:08000000803102288731EC2F4A
:1009740008001630210097000800FE0012001E0037
:10098400FE0BC02C00347030210099009801220025
:100994009601080024001E151E19D12CD22CCE2C31
:1009A4000800F00070080F39333E86008701010803
:1009B400080021008C110C1022008C150C148C11D1
:1009C4000C10080021008C110C1022000C108C114A
:1009D4000C148C1508008531712584318431C524AB
:1009E40084318431BB248431080085310B25843162
:1009F40024009E149E18FF2C002DFC2C0800853129
:100A04000B25853124001E141E18092D0A2D062DD0
:100A1400080024001E081F39031D112D122D0B2D53
:100A24001C19152D162D0B2D08003F3406345B348C
:100A34004F3466346D347D3407347F346F34FF347F
:100A4400FF34FF34FF34F0007008240099001C18B0
:100A54002C2D2D2D292D1E1B302D312D2D2D853185
:100A64000B2585310800F2007003031D3A2D3B2D40
:100A7400422D720807390838F1007108FD00472D2E
:100A840072080739F1007108FD000800F7000F3003
:100A94007705F4000A30F5007508F0007708F600D1
:100AA4000430F636890B532D760885315C25853163
:100AB40074070800F300F201731C612D622D662D8A
:100AC4007008F1007108F2070310F00D0310F30C25
:100AD4007308031D6E2D6F2D5E2D72080800220011
:100AE4008C018D01FF3021008C00FF308D00DA3045
:100AF40023008D0016308C00243024008D008C01DE
:100B04002100951722009D019E010800F100710C3F
:100B14002400031C9E1203189E169E151C1C932D64
:100B2400942D902D1E161908F0007008F2001D1364
:100B340085310B25853172080800F90085310125BE
:100B44008531D030853125258531790885312525B4
:100B540085318431F7248531D1308531252585319E
:100B64000130853188258531853148258531F80066
:100B74007808FA008431CC2485317A080800F8001A
:100B84008431DB24853140308531FB258531843146
:100B9400E42485318431DB24853176080339C03E71
:100BA4008531FB258531F901E52D79087807F700B2
:100BB40077088600870101088531FB2585310130DE
:100BC400F7007708F90775087902031CEA2DEB2D65
:100BD400D72D8431E42485318431DB2485317D08AB
:100BE4000F39803E8531FB2585318431E4248531FC
:100BF4000800F1007108F0007008F30021000C10E7
:100C0400F40122000C10731C082E092E0B2E8C15D7
:100C14000C2E8C110C147336F0007008F3000130A4
:100C2400F0007008F40708307402031C1A2E1B2EFF
:100C3400032E0C108C150C1421008C158431BA244D
:100C44008531003020008C190130F2007208031D38
:100C54002C2E2D2E312E21008C1122008C1184314A
:100C6400BA24853121008C118431BA2485310800DD
:100C74008431ED24863121000D158D162430240095
:100C84008D0013309A0028309D009E019C01143081
:100C94002000AB002B08AD000B30AB002B08AE00DE
:100CA400AF01AF0A0A30AB002B08B0002630AB000E
:100CB4002B08B1001830AB002B08B200F001F00A89
:100CC4000F308531352586312D3086317E268631AB
:100CD4002D3087317627863102302000AC00043075
:100CE400AB00BA30890B742EAB0B742EAC0B742E84
:100CF4000000662E80310228FC00063085319F25D5
:100D04008631FB007C08860087017B088100053062
:100D140085319F258631FB007C0A860087017B088C
:100D24008100043085319F258631FB007C08023E1A
:100D3400860087017B088100033085319F25863139
:100D4400023085319F258631FB007C08033E8600F6
:100D540087017B088100013085319F258631FB00A6
:100D64007C08043E860087017B08810000308531C1
:100D74009F258631FB007C08053E860087017B08A1
:100D840081000800F601F31FC82EC92ED02EF209E7
:100D9400F309F20A0319F30AF601F60AF11FD32E36
:100DA400D42ED92EF009F109F00A0319F10A7008BA
:100DB40071040319DE2EDF2E082FF501F50AEB2E40
:100DC4000130F035F10D890BE32E0130F400740885
:100DD400F507F11FEE2EEF2EE22E71087302031DAC
:100DE400F52E70087202031CF82EF92EFD2E7008E1
:100DF400F2027108F33B0130F136F00C890BFE2E40
:100E04000130F502031D072F082FEF2E7608031972
:100E14000C2F0D2F122FF209F309F20A0319F30A0A
:100E24007308F1007208F0000800F601F11F1B2F8F
:100E34001C2F232FF009F109F00A0319F10AF60116
:100E4400F60AF31F262F272F302FF209F309F20A8F
:100E54000319F30A0130F4007408F606F701F801E7
:100E6400700871040319372F382F672FF501F50A1D
:100E7400442F0130F035F10D890B3C2F0130F40083
:100E84007408F507F11F472F482F3B2F0130F73522
:100E9400F80D890B492F71087302031D532F700835
:100EA4007202031C562F572F5C2F7008F202710830
:100EB400F33B77140130F136F00C890B5D2F0130D0
:100EC400F502031D662F672F482F760803196B2F31
:100ED4006C2F712FF709F809F70A0319F80A780833
:100EE400F1007708F00008002000AA004008A700DD
:100EF4003F08A6003E08A5003D08A4002A08860075
:100F04008701443FA8002A0886008701453FA900BD
:100F14000A30F0000030F1002808FA00FB017A08DA
:100F2400F2007B08F300873117278731700884317A
:100F3400D3248731FC007C082000A4000A30F00090
:100F44000030F1002808FA00FB017A08F2007B085F
:100F5400F3008631C426873170088431D324873165
:100F6400FC007C082000A5000A30F0000030F100ED
:100F74002908FA00FB017A08F2007B08F3008731A4
:100F84001727873170088431D3248731FC007C080B
:100F94002000A6000A30F0000030F1002908FA0011
:100FA400FB017A08F2007B08F3008631C4268731FE
:100FB40070088431D3248731FC007C082000A7000A
:100FC4000430FA007A08F500F60124308531C12591
:100FD400873108001730840085308500333086005F
:100FE400003087000E308431BF248731FD01C101F8
:0C0FF400C201C301C401200086313A2E66
:020000040001F9
:04000E00E43FFF1EAE
:00000001FF
